:020000040800F2
:1000000098240020090100083D400008E73C000852
:10001000553F0008411A0008814B0008000000000D
:100020000000000000000000000000004341000844
:10003000931A0008000000005F400008B541000866
:100040002301000823010008230100082301000800
:1000500023010008230100082301000823010008F0
:1000600023010008230100082301000823010008E0
:1000700023010008451A000823010008511A00084E
:100080005D1A00082301000823010008230100086D
:1000900023010008230100082301000823010008B0
:1000A00000000000230100082301000823010008CC
:1000B0002301000823010008230100082301000890
:1000C0002301000823010008230100082301000880
:1000D00023010008154B0008394B00085D4B000850
:1000E0002301000823010008230100087D420008C5
:1000F00023010008DFF80CD000F08AFE004800471A
:10010000D55A000898240020064880470648004732
:10011000FEE7FEE7FEE7FEE7FEE7FEE7FEE7FEE7B7
:10012000FEE7FEE72D420008F50000080048704792
:10013000486A000810B50446FFF7F8FF0068005D44
:1001400000F0010010BDA0F14101192900D82030B4
:10015000704740EA01039B0703D009E008C9121F5A
:1001600008C0042AFAD203E011F8013B00F8013B71
:10017000521EF9D27047D2B201E000F8012B491E9D
:10018000FBD270470022F6E710B513460A46044634
:100190001946FFF7F0FF204610BD30B505462A4648
:1001A0000B4612F8010B13F8014B08B1A042F8D02E
:1001B0001CB1002802D06D1CF1E7284630BD10B5F7
:1001C000044604E00B7800F8013B03B1491C521EC1
:1001D000F8D2204610BD421C10F8011B0029FBD1AB
:1001E000801A704710B5002200E0521C835C8C5CC2
:1001F000A34201D1002BF8D1D8B2E1B2401A10BD10
:1002000010B5044600E0401C0378002BFBD100E051
:10021000401C521E04D311F8013B0370002BF7D190
:1002200000210170204610BD034611F8012B00F893
:10023000012B002AF9D11846704730B50546002039
:10024000034600E05B1C934205D2EC5CC85C201ABC
:1002500001D1002CF6D130BD0FB400B58DB010A97E
:1002600009900B9000914FF0FF300A9000200C9005
:1002700005480690054807906A4609A80F9900F0BE
:1002800025FB0DB05DF814FBE9080008070900081C
:100290002DE9FF5F1D464FF0FF3BD5E90146914632
:1002A0005F464FF00008A9697F1C01988847296ABA
:1002B000824688470028F6D1BAF1FF3F0CD024F4DB
:1002C000C064002E19DD600614D5BAF12B0F09D0D9
:1002D000BAF12D0F0ED103E0584604B0BDE8F09FEF
:1002E00044F48064A9697F1C01988847761E824681
:1002F000002E02DDBAF1300F03D0B9F1000F26D085
:1003000032E0A969761E44F400747F1C0198884786
:100310008246002E05DDBAF1780F06D0BAF1580FEB
:1003200003D0B9F1000F10D01EE0B9F1000F02D0D8
:10033000B9F1100F18D1A969761E24F400747F1C3E
:10034000019888478246102002E0082000E00A2039
:10035000814609E008FB0908A969761E44F4007487
:100360007F1C019888478246002E05DD494650468D
:1003700000F097FA0028EDDAE96901988847A005AE
:1003800002D46FF00100A8E7E00725D1600613D57D
:10039000600502D5C8F1000000E0404629680A1D4A
:1003A0002A600968220501D5087015E0220701D5E9
:1003B000088011E008600FE02868011D29600068CE
:1003C000210502D580F8008006E0210702D5A0F8BB
:1003D000008001E0C0F8008038467EE72DE9FF4F3D
:1003E000087883B09946FF2805D0491C2D2804D0F1
:1003F0000024002008E000200BE00124F9E700EBD6
:10040000800003EB4000491C0B78FF2BF7D104B1AF
:10041000404200230293147819461D462D2C01D02A
:100420002B2C04D1521C2D2C13D000240294AA464C
:100430001478FF2C0FD00A25A3FB057801FB05815A
:100440004FF0000C03FB0C11521CE3194AEB0101A5
:10045000EEE70124EAE7814453EA010002D019F5EE
:10046000C87F06DA03980021C0E9001107B0BDE893
:10047000F08F0025AE4E2F46DFF8B882184600F008
:1004800086FCCDE90001B9F1000002DAC9F10004EF
:1004900000E004460023A74A1AEB030B42EB045A80
:1004A00012E0E00707D02A4633463846414600F0BE
:1004B0008DFB074688462A4633461046194600F00B
:1004C00085FB05460E466410002CEAD1DDE90001EB
:1004D000B9F1000F5A46534606DA00F0E9FB3A46F6
:1004E000434600F0E5FB05E000F070FB3A4643466A
:1004F00000F06CFB029A0AB181F00041039AC2E954
:100500000001B3E72DE9FF4F1F468DB0D7E9014643
:100510004FF0FF382E2045464FF000090B90B96987
:100520006D1C0E988847396A824688470028F6D1A4
:10053000BAF1FF3F0AD024F4D064002E11DDBAF1E5
:100540002B0F08D0BAF12D0F0BD102E0404611B0AD
:100550008DE744F48064B9696D1C0E988847824623
:10056000761E6946600501D52D2000E02B208DF810
:10057000000001F1010B0DF1200809E0B9696D1CC3
:100580000E98884782460F9844F40074761E0560E2
:10059000002E02DDBAF1300FF0D00B998A453ED122
:1005A00044F0800406E00F99681CA9F1010944F4A5
:1005B00000740860B9696D1C761E0E9888478246E3
:1005C0003028F0D02BE00B998A4505D1200603D4C2
:1005D00044F08004761E18E0504604F031FC08B365
:1005E0000DF11301761E44F400748B4508D2AAF174
:1005F00030000BF8010B200607D5A9F1010003E03C
:10060000200602D409F101008146A00502D50F9908
:10061000681C0860B9696D1C0E9888478246002ED8
:10062000D1DC53E0002E51DDBAF1650F02D0BAF1F2
:10063000450F4BD1A00549D5B9696D1C24F4407410
:10064000761E0E9888478246002E0CDD2B2804D09B
:10065000BAF12D0F07D144F48074B9696D1C0E985E
:1006600088478246761EE00501D52D2100E02B212A
:1006700008F8011BCDF82C8021E00DF12901761E30
:1006800044F4007488450CD2AAF1300010F0FF0049
:1006900088F8000002D10B99884509D908F10108B2
:1006A00006E0E00501D5244801E042F20F708146E2
:1006B000B9696D1C0E98884782460F980560002E18
:1006C00004DD504604F0BCFB0028D6D1F9690E9831
:1006D0008847FF208BF8000088F800000020069073
:1006E00007904B466A4608A906A8FFF777FEA005C3
:1006F00002D46FF001002AE714F0240F0AD0E007BB
:1007000014D1DDE906123868031D3B600068C0E9BA
:1007100000120BE0DDE9060100F05DFB0146E00799
:1007200004D13868021D3A600068016028460EE76F
:10073000000014400000F03FF1D8FFFF0EB540F27A
:10074000334102910021CDE900110A460B4600F029
:1007500048F903B000BD70B5C1F30A5201F000457D
:100760000024C1F3130140F2FF3341F480119A4297
:1007700001DA002070BD40F233439A42A2F23342C4
:1007800003DC524200F07DF800E090402C43F1D0B1
:10079000404270BD30B5041E71F1000404DB4FF01F
:1007A0000044404264EB0101141E73F1000405DBB8
:1007B0001C464FF00043524263EB04038B4208BFD8
:1007C000824230BD30B5041E71F1000404DB4FF0ED
:1007D0000044404264EB0101141E73F1000405DB88
:1007E0001C464FF00043524263EB0403994208BF9A
:1007F000904230BD30B50B46014600202022012436
:1008000009E021FA02F59D4205D303FA02F5491BDE
:1008100004FA02F52844151EA2F10102F1DC30BDF4
:100820002DE9F05F0546002092469B468846064625
:10083000814640241BE0284641464746224600F0B8
:1008400020F853465A46C01A914110D31146184613
:10085000224600F0EFFA2D1A67EB01084F462246B8
:100860000120002100F0E6FA17EB00094E41201E9E
:10087000A4F10104DFDC484631462A464346BDE880
:10088000F09F202A04DB203A21FA02F00021704771
:1008900021FA02F3D040C2F12002914008431946E8
:1008A00070473A2800D2303820F02002412A01D384
:1008B000A2F13700884201D34FF0FF3070470000AB
:1008C000026811441378016018467047D1600449EA
:1008D00051610449116200211161114600F0CCBA46
:1008E000C108000835010008426842B1016811F8EA
:1008F000013B23B1521EC0E9001218467047012186
:10090000C160881E704742685AB1C368016843B924
:1009100083688B4205D0491E521CC0E9001200209A
:1009200070474FF0FF3070470FB4002300B589B017
:100930000CA900910B996FF00042CB601E4B0693FF
:100940001E4B07930423CDE901321D4A089202464B
:100950006B460020FFF7D6FD09B05DF814FB70B5BB
:1009600086B006464FF0FF300091CDE9010100202E
:1009700015460C4604903246694604A8FFF7D4FF9A
:1009800002460498211825B108B1084600E0204627
:100990002860049800280DD0002A02DD00988842C3
:1009A00008D0081B0094CDE901043246694604A82A
:1009B000FFF7BAFF06B070BDE90800080709000894
:1009C0003501000810B5141E73F1000408DA401C4C
:1009D00041F1000192185B411A4301D120F001005E
:1009E00010BD2DE9F04D92469B4611B1B1FA81F24E
:1009F00002E0B0FA80F22032904600F01BFA044682
:100A00000F4640EA0A0041EA0B0153465A460843A2
:100A100013D0114653EA010019D0C8F140025046E4
:100A2000FFF72FFF05460E4650465946424600F056
:100A300001FA084305D0012004E020463946BDE80C
:100A4000F08D0020054346EAE0762C4337430A98B0
:100A50006305E40AA0EB08000022FD0A44EA4754BB
:100A60000A3002D500200146E9E701051019694165
:100A7000DDE9084500196941BDE8F04DA2E72DE91F
:100A8000FE4F804681EA0300C00F0C46009021F023
:100A9000004123F00045B8EB0200A94105D24046D1
:100AA000214690461C460B46024623F00040104368
:100AB00047D0270DC7F30A00C3F30A510290401A2A
:100AC000019040286BDAC3F3130040F4801B0098B8
:100AD000924620B10023D2EB030A63EB0B0B019883
:100AE0005946C0F14002504600F0A4F906460D46B2
:100AF00050465946019A00F0ACF910EB08006141EC
:100B0000002487EA115284EAE7731A4340D0009A1E
:100B100062B3019A012A4FEA075215DC001B61EB10
:100B200002014FF0004202EA0752CDE90042001CE8
:100B300041F5801132462B46FFF753FF03B0BDE865
:100B4000F08F40462146F9E7001B61EB0201001CD3
:100B500041F5801300185B412018A2F5001747EB00
:100B6000030140EAD570B6196D4111E06D084FEAF6
:100B7000360645EAC0754FEA0752001B61EB0201D9
:100B8000001C41F5801149084FEA3000001951411D
:100B900032462B4603B0BDE8F04FFFF713BF009875
:100BA000012240000023D0EB020263EBE0730098C7
:100BB00021464FEAE074B8EB000061EB0401E9E77D
:100BC00083F000435BE781F0004158E72DE9FE4FD9
:100BD00081EA030404F0004421F0004100944FF046
:100BE000000B23F0004350EA01045ED052EA0304F4
:100BF0005BD0C3F30A54C1F30A552C44A4F2F33476
:100C00000194A0FB0254C1F3130141F48011C3F31A
:100C1000130343F4801301FB024400FB034E840AD8
:100C2000970A44EA815447EA8357A4FB0768029570
:100C30008D0A05FB07854FEA932C04FB0C5427050E
:100C4000029D4FEA065847EA1637B5EB08056EEBEA
:100C5000070C870E920E47EA811742EA8312A7FB20
:100C60000201B6EB0B0164EB00042B0D43EA0C33DD
:100C70005E1844EB1C50DA465146E7FB0201C5F30F
:100C800013044FEA0B3343EA14534FEA0432019C36
:100C900043EA0603A4F10C040294009CCDE900B4DD
:100CA000FFF79FFE03B0BDE8F08F00200146F9E793
:100CB0002DE9F04D81EA030404F0004B21F00045DA
:100CC00014464FF0000A23F0004150EA050220D0FC
:100CD00054EA01021DD0C5F30A570246C5F31303B7
:100CE000C1F31300C1F30A5640F4801543F4801396
:100CF000A7EB0608101BD64608F2FD3873EB05007B
:100D000002D308F1010801E092185B41B8F1000F2D
:100D100003DA00200146BDE8F08D00204FF4801179
:100D2000064684460EE0171B73EB050705D3121B1E
:100D300063EB050306434CEA010C49084FEA300017
:100D400092185B4150EA0107EDD152EA030012D03C
:100D500082EA040083EA0501084305D0101BAB4179
:100D600006D20122002306E000224FF0004302E0F9
:100D70006FF0010253101AEB06004CEB085110EB18
:100D80000A0041EB0B01BDE8F04DFFF71BBE0EB5AD
:100D900040F2334202920022CDE900221346FFF7CF
:100DA00020FE03B000BDC1F30A52C1F3130140F2AB
:100DB000FF3341F480119A4202DA00200146704765
:100DC00040F233439A42A2F2334202DC5242FFF72E
:100DD00058BD00F02FB801F0004330B421F00041BD
:100DE00050EA010206D00A0DA2F56072C1F31301A8
:100DF000002A02DC30BC00207047440F44EAC104E2
:100E0000C100E01830BC00EBC25000F0CBB90000CC
:100E1000064C074D06E0E06840F0010394E8070047
:100E200098471034AC42F6D3FFF768F94C6A0008D3
:100E30006C6A0008202A04DB203A00FA02F1002044
:100E400070479140C2F1200320FA03F31943904008
:100E50007047202A06DBCB17203A41FA02F043EA1A
:100E6000E07306E041FA02F3D040C2F12002914063
:100E700008431946704700002DE9F34F8BB04FF03F
:100E8000000801F10C000C464FF0010B46460DF135
:100E9000080A01906269012101989047051E2DD032
:100EA000252D2CD0216A8847C0B1626901210198A3
:100EB0009047216A88470028F7D1411E626901984E
:100EC000904700E0761CA1690B988847216A884703
:100ED0000028F7D1E1690B988847DBE7A1690B98F7
:100EE00088470746A84201D1761CD3E7E1690B98F1
:100EF00088477F1C02D1B8F1000F6FD046E1002770
:100F000062693D463946019890472A2804D16269B2
:100F10000121019890470125DFF88492626901213F
:100F200001989047A0F130010A290AD24F45E5DC2B
:100F300007EB870100EB4107303FDFD445F0100598
:100F4000ECE7E90601D46FF000476C280AD04C2882
:100F500014D0682815D06A280DD074281CD07A289F
:100F60001AD01DE062690121019890476C2802D0D7
:100F700045F0040514E045F002050DE045F02005BC
:100F80000AE06269012101989047682802D045F083
:100F9000080505E045F40065626901210198904764
:100FA000C4E9015765283DD019DC58287AD00CDCFB
:100FB000452837D004DC252826D0412831D131E01E
:100FC00046282FD047282CD12CE05B2877D06128E9
:100FD00028D063287CD0642823D15AE0D0E06F2841
:100FE00048D008DC66281DD067281BD0692821D08E
:100FF0006E2816D127E0702845D0732868D0752850
:1010000047D078280DD14DE0A1690B988847054657
:1010100025283FF469AFE1690B9888476D1C3FF4C0
:101020006AAFB3E023466A466FF001000B99FFF701
:1010300069FA9EE045F040006060A80723464FF043
:10104000000236D43EE0E8077FF447AF2068011D78
:1010500021600068290501D506701BE7290701D525
:10106000068017E7A90703D5F117C0E9006111E76A
:1010700006600FE745F040006060A80723464FF088
:10108000080216D41EE040F60E0125EA0100606059
:1010900016E045F040006060A80723464FF00A02C2
:1010A00007D40FE045F040006060A80708D523464C
:1010B00010226FF001000B99AFF3008059E007E0B8
:1010C000234610226FF001000B99FFF7E1F850E082
:1010D0004FF000094F464B46632802D05B2806D0EC
:1010E00040E0E80601D40120A06001273AE06269EF
:1010F0000121019890475E2805D14FF001096269EE
:10110000494601989047216939B900210A4653465A
:1011100043F82120491C0829FADBB0B3216969B9D9
:10112000C11700EBD16253110AEB830122F01F02B9
:10113000821A01200B68904003430B606269012111
:10114000019890475D28E8D1B9F1000F09D000203F
:10115000514651F82020D24341F82020401C082855
:10116000F7DB02AB224600976FF001000B99AFF35B
:10117000008000280CDA401C08D1BBF1000F05D01C
:101180004FF0FF300DB0BDE8F08FFFE74046F9E7C4
:10119000E90701D108F1010806444FF0000B79E698
:1011A000CCCCCC0C0029A8BF7047401C490008BF1C
:1011B00020F00100704710B4B0FA80FC00FA0CF087
:1011C00050EA010404BF10BC704749B1CCF12004BF
:1011D00021FA04F411FA0CF118BF0121214308434C
:1011E000A3EB0C01CB1D4FEA00614FEA102042BF78
:1011F000002010BC704700EBC35010440029A4BF6E
:1012000010BC7047401C490008BF20F0010010BC12
:10121000704770B58C1810F8015B15F0070301D109
:1012200010F8013B2A1106D110F8012B03E010F849
:10123000016B01F8016B5B1EF9D12B0705D400236C
:10124000521E0DD401F8013BFAE710F8013BCB1A0E
:10125000921C03E013F8015B01F8015B521EF9D503
:10126000A142D8D3002070BD30B58BB025A003F0CB
:1012700089FC4FF49674204600F0D4FE25A003F0BC
:1012800081FC204600F0CEFE26A003F07BFC204629
:1012900000F0C8FE03244FF4C87503E0641E14F088
:1012A000FF0419D02A4623A123A004F067FC0028DC
:1012B000F4D12748274B827800F5FA70027018782D
:1012C00031280CD0244B25A14FEA0D0003F06AFC15
:1012D00003244FF448750AE008200BB030BD1FA16D
:1012E00068469B1CF2E7641E14F0FF0408D02A46EF
:1012F00010A1684604F042FC0028F4D10720ECE776
:101300000920EAE741542B4E534F434C3D300D0A20
:101310000000000041542B4E534F434C3D310D0A09
:101320000000000041542B4E534F434C3D320D0AF8
:10133000000000004F4B000041542B4E534F4352CE
:101340003D53545245414D2C362C302C3100000079
:101350001E0300208E020020A702002041542B4EC5
:10136000534F434F3D25632C257300002DE9F04773
:101370007D4C0A264FF4C875267005E02078401E83
:1013800010F0FF0020700BD02A4678A178A004F05E
:10139000F5FB0028F2D1032727704FF4FA6808E024
:1013A0000120BDE8F0872078401E10F0FF0020707B
:1013B0000ED042466DA16FA004F0E0FB0028F2D1F0
:1013C00027702A4669A16EA004F0D8FB10B10DE089
:1013D0000220E6E76CA16D48FEF7DFFE010005D0B4
:1013E0000F226B48FEF7EBFE27700DE02078401EC1
:1013F00010F0FF002070E4D10320D2E72078401ED7
:1014000010F0FF00207006D02A4658A161A004F019
:10141000B5FB0028F2D14FF0020884F800804FF4A9
:1014200096790AE02078401E10F0FF0020700BD063
:101430004A464EA15AA004F0A1FB2A465CA15FA037
:1014400004F09CFB0028EDD184F800802A4647A1D7
:101450005DA004F093FB58B12078401E10F0FF000F
:1014600020701FD04A4641A14DA004F087FBEDE754
:101470005AA14648FEF791FE60605AA14348FEF724
:101480008CFEA060616869B160B1414802221D30E4
:10149000491DFEF794FE3E48A16804221330491D01
:1014A000FEF78DFE26703A4E0020B0742078401E64
:1014B00010F0FF00207026D02A464CA14CA004F06A
:1014C0005DFBB8B94CA13148FEF767FE60604CA1E6
:1014D0002E48FEF762FEA0606168401AC0B207287D
:1014E00016D048793038C1B2B074632902D045A013
:1014F00004F0F2F94FF4FA7000F094FDB07C632828
:10150000D4D00028D2D0142020704FF4167612E0E8
:1015100048798A79303800EB8000D02101EB400017
:101520001044E0E72078401E10F0FF0020700BD040
:10153000304600F077FD2A4634A137A004F01EFBA8
:101540000028EFD1277005E005202AE7207848B170
:10155000401E20702A4633A135A004F00FFB00285E
:10156000F4D11EE706201CE7640200204F4B000068
:101570004154000041542B4346554E3D310000007C
:1015800041542B43494D4900343630001E0300209E
:101590001E07002041542B43474154543D31000065
:1015A00041542B515245475357543D3200000000DF
:1015B0002B515245475357543A32000041542B5156
:1015C0005245475357543F0041542B5143484950CB
:1015D000494E464F3D414C4C0000000054454D5093
:1015E000000000005642415400000000393900005C
:1015F00041542B43535100002B4353510000000032
:101600002C0000004353513A25640A002B43474104
:1016100054543A310000000041542B434741545484
:101620003F0000002B434750414444523A302C00C5
:1016300041542B4347504144445200002DE9F041AE
:1016400033A13648FEF7A9FD354D002868605CD00F
:10165000344C017A617000214218927A0D2A04D02C
:101660006318491C9A70C9B2F6E7601800268670A4
:1016700002F072FC4FF49677384600F0D3FC6178A4
:10168000A21C29A003F07EFA384600F0CBFC2BA167
:101690002248FEF782FD686028A1401CFEF77DFD10
:1016A000686026A1401CFEF778FD686084F80B6234
:1016B0000022811849782C2910D0A3185973303989
:1016C000092900D8CBB294F80B12521C01EB81010E
:1016D00003EB410184F80B12D2B2EAE717A1401CD8
:1016E000FEF75BFD00216860421852782C2A04D076
:1016F0006318491CDA75C9B2F6E76018C67502F0BE
:101700002BFC012000F08EFC0120BDE8F0810000E0
:101710002B4E534F4E4D493A000000001E0300204F
:10172000640200201205002041542B4E534F5246B4
:101730003D25632C25730D0A000000002C000000DD
:10174000F8B50746FEF747FDFA2843D24FF4FA7181
:101750002148FEF717FD204D3846FEF73CFD86B2C6
:1017600000240CE03A5D1DA1684603F01BFA02223A
:1017700069462846FEF723FD851C641CA4B2B442CA
:10178000F0D302F0E9FB1748134B3246017816A05C
:1017900003F0F8F94FF49675284600F043FC17A1C2
:1017A0001748FEF7FAFC174C60600DE0284600F081
:1017B00039FC12A11248FEF7F0FC606012A110483B
:1017C000FEF7EBFC10B960680028EFD0BDE8F840E8
:1017D00002F0C2BBF8BD00004F0700202530327870
:1017E000000000001205002041542B4E534F53447B
:1017F0003D25632C25642C25730D0A004F4B0000FA
:101800001E030020640200204552524F5200000087
:10181000084B38B1012807D002280AD110211846F8
:1018200000F022BE002200E001221021184600F044
:101830001FBE70470000024038B50F4C2068016899
:10184000C943C90617D4016840680090204602F0D9
:1018500014F8206801684068084800684168084832
:1018600000230278511AC9B2421C80F833108B54FD
:10187000012180F8341038BDF00A0020B00B0020A0
:101880000000002038B50F4C20680168C943C90624
:1018900017D4016840680090204601F0EEFF2068F0
:1018A00001684068084800684168084800230278D9
:1018B000511AC9B2421C80F833108B54012180F8B0
:1018C000341038BD300B0020F40B00203500002010
:1018D00038B51D4C20680168C943C90632D4016877
:1018E00040680090204601F0C8FF20680168406809
:1018F000164800684068164C00222188081A80B2F9
:10190000211D608042541348FEF765FC6288104434
:1019100080B2B0F5FA7F04D2211D0E48FEF770FCAC
:1019200004E0221D0CA10B4803F03CF90BA109486F
:10193000FEF733FC18B10C49087B401C08730120EA
:1019400084F8F80138BD0000700B0020380C00202E
:101950006A0000201E030020257300002B4E534F09
:101960004E4D493A0000000012050020084B4FF48C
:10197000804130B1012806D0022808D1184600F075
:1019800073BD012200E00022184600F071BD7047CF
:1019900000040240084B38B1012807D002280AD1C0
:1019A0002021184600F060BD002200E00122202125
:1019B000184600F05DBD7047000002401C4808B5A5
:1019C0000168CA6852F01002CA6009D10068016853
:1019D000406818490090164811F8012B02F0D6F81B
:1019E00015480168CA6852F01002CA600AD100683E
:1019F000016840680F49009035310F4811F8012BFC
:101A000002F0C4F80D480168CA6852F01002CA60BA
:101A10000CD1006801684068064900906A310748A7
:101A200031F8042BBDE8084002F0B0B808BD000052
:101A3000F00A002000000020300B0020700B002076
:101A4000FEE77047014800F02EBA0000380C002075
:101A5000014800F028BA0000B00B0020014800F057
:101A600022BA0000F40B002030B590F84050012459
:101A7000AC40C56B6C60046863604368102B0368FE
:101A800003D099600068C26030BD9A600068C16090
:101A900030BD704730B58BB0022201A9244800F058
:101AA000D9F90198882808D102984FF6FE71401E96
:101AB000884202D21F49029808801F4D01226946C0
:101AC000284600F0CFF9FEF731FB044600689DF888
:101AD0000010405C202805D116490622891C2846A2
:101AE00000F0C0F9154D192203A9284600F0BAF9F3
:101AF00000208DF800000146206803AB5A5C825C30
:101B000012F0BA0F04D09DF80020521C8DF800206E
:101B1000491CC9B21929F1D39DF800200B2A04D918
:101B2000044928460A3100F09DF90BB030BD000091
:101B300000F500088402002000F0000800F300080F
:101B40007047000070B506464CF250350C462846EA
:101B500000F056F9002820D110494861B368BBB1A4
:101B60000F4A906834B11843D16880B241EA1341FA
:101B700089B205E0D9438BB21840D36803EA11411A
:101B8000C34340EA03409060C84341EA0040D0604C
:101B90002846BDE8704000F033B970BD7C0C0020D1
:101BA0000000F81F074900224A6107490B6843F407
:101BB00000730B600B6843F008030B6020F0FF001C
:101BC000026070477C0C0020043C02400F4A002158
:101BD0001068C3050E4804D5416941F00201416116
:101BE000911513689B0505D5436943F001034361D3
:101BF00041F4007113681B0505D5436943F00403E4
:101C0000436141F40061116070470000183C0240DC
:101C10007C0C00202DE9F84FDFF8E0B089460F4634
:101C2000DBF80010054600EB8206002421F4006179
:101C3000CBF8001000F030FB00F0EEFA304800F076
:101C40003DFADFF8BC80A246B8F8080000040CD5C5
:101C50000121C8E9001AC9034046C8F8081000F07D
:101C600043FA00B1012400F0C1FA00F0CBFAB8F851
:101C70000800000431D4224801210C38C0F800A02B
:101C8000C0E901511F4900F0D9F900B101241D48F4
:101C9000001F8046056005E004CF022000F0DEFA58
:101CA00048B10124D8F800104046B142F4D30146AF
:101CB000056048460DE0D8F80010091DC8F800106E
:101CC000F0E7036815689D4200D00124121D001D35
:101CD0000A600A68B242F4D300E0012400F07CFA02
:101CE000DBF8001041F40061CBF80010DBF80000D5
:101CF00000F4006000902046BDE8F88F24380240D0
:101D000050090020800200202DE9F84FDFF8E4B0F0
:101D100089460F46DBF80010054600EB82060024DA
:101D200021F40061CBF8001000F0B6FA00F074FA6C
:101D3000314800F0C3F9DFF8C080A246B8F80800C7
:101D400000040CD50121C8E9001AC9034046C8F8AF
:101D5000081000F0C9F900B1012400F047FA00F0C2
:101D600051FAB8F80800000432D4234801210C3895
:101D7000C0F800A0C0E90151204900F05FF900B1AE
:101D800001241E48001F8046056006E017F8012B5D
:101D9000022000F063FA48B10124D8F80010404650
:101DA000B142F3D30146056048460DE0D8F8001073
:101DB000091DC8F80010F0E7037815689D4200D0AF
:101DC0000124121D401C0A600A68B242F4D300E0EC
:101DD000012400F001FADBF8001041F40061CBF8B7
:101DE0000010DBF8000000F4006000902046BDE821
:101DF000F88F0000243802405009002080020020A3
:101E000070B5054600F03AFB0646114C09E0681C27
:101E100007D025B100F032FB801BA84201D9032076
:101E200070BD2068C007F2D12068800701D502206C
:101E300020602068C00505D42068000502D4206811
:101E4000800503D5FFF7C2FE012070BD002070BDE4
:101E5000183C024000EB820201E008C808C1904231
:101E6000FBD3704700EB820202E008C801F8013B97
:101E70009042FAD3704701680A6822F00E020A60A5
:101E800001680A6822F001020A6090F84020C36BE2
:101E9000012101FA02F25A6080F82110002180F835
:101EA000201008467047F0B4C16B0D6801680C68DB
:101EB000066C042202FA06F32B420FD063070DD5FD
:101EC0000B689B0603D40B6823F004030B6090F8A7
:101ED00040108A40C16B4A60C16A1BE0022303FACA
:101EE00006F72F424FF0000C4FF0010216D0A70763
:101EF00014D50C68A40605D40C6824F00A040C6000
:101F000080F8212090F840108B40C16B4B6080F826
:101F100020C0816A002918D0F0BC08470823B340CC
:101F20002B4212D0230710D50B6823F00E030B6051
:101F300090F84010C36B02FA01F15960826380F897
:101F4000212080F820C0016BE4E7F0BC704700005E
:101F500030B548B308C8154914221944B1FBF2F151
:101F60008900C16312498163022141771A6843F6EF
:101F7000F0718A43D0E900142143D0E902452C4393
:101F80002143046921434469214384692143114366
:101F90001960002141628162C162016341630122D3
:101FA00042770177084630BD012030BDF89FFDBF64
:101FB0000060024070B5044690F82000002501281A
:101FC0000CD0012084F8200094F821600020012E1C
:101FD00006D084F820000225284670BD022070BD7E
:101FE000022684F82160A0632068066826F00106B6
:101FF00006602046FFF738FDE06A00282068016887
:1020000002D041F00E0106E021F0040101602068D9
:10201000016841F00A0101602068016841F0010196
:102020000160D9E731B500F029FA044600F026FA3C
:102030000099001B8842F9D338BD00002DE9F04714
:102040001C4E05460F46307C012808D00120307414
:102050004CF250384046FFF7D3FE18B127E002207B
:10206000BDE8F0874FF0FF313960C146DFF84880A6
:102070006C6816E02046FFF795FD4846FFF7C0FE66
:10208000D8F8002022F00802C8F80020D8F8002074
:1020900022F40072C8F8002008B13C6007E004F5A3
:1020A0008074D5E9011201EB0221A142E2D800219E
:1020B0003174D5E77C0C0020043C02400F21016004
:1020C0000849096881600749091F0A6802730A689C
:1020D000702303EA124282730968C1F3034141731A
:1020E00070470000203C02402DE9F047384C05467F
:1020F0000120217C012910D00121217429784FF081
:102100000007C9070ED06868012809D000212846B9
:10211000FFF718FD002858D104E00220BDE8F08741
:102120000121F4E729782B4E89074CF2503817D556
:10213000287B3168C9B2AA2901D1AA2807D0C14396
:1021400040EA01494046FFF75BFE10B107E001207D
:102150003BE06761C6F800904046FFF751FEA0BB28
:10216000297849071CD5A97B01F0100001F0200354
:1021700001F0400271684FF68F7C184301EA0C01B0
:1021800010430843C14340EA01494046FFF738FE87
:1021900028B96761C6F804904046FFF731FEA0B940
:1021A0002978090711D56D7B70684FF6F0710840EA
:1021B0000543E84345EA00454046FFF721FE20B9C4
:1021C000676175604046FFF71BFE2774A6E70000B5
:1021D0007C0C00200000F81F0348016841F0020158
:1021E0000160002070470000043C02400448016880
:1021F00041F4802101604CF25030FFF701BE000035
:10220000043C02400348016841F0040101600020E1
:1022100070470000043C02400B480168490710D594
:102220000068C00705D0084808490830016008491F
:10223000016005480749103001600749016000202E
:102240007047012070470000043C0240EFCDAB898D
:1022500005040302C8D9EAFB272625242DE9F0410D
:102260000C4C16460F46207C012809D00120207412
:102270004CF250384046FFF7C3FD002518B107E087
:102280000220BDE8F08165613E604046FFF7B8FD81
:102290002574F6E77C0C00200B480168890710D5EF
:1022A0000068C00705D0084808490830016008499F
:1022B0000160054807490C300160074901600020B2
:1022C0007047012070470000043C0240EFCDAB890D
:1022D00005040302BFAE9D8C161514132DE9F84FAB
:1022E000DFF864B100234FF0010C4FF0030A4FF008
:1022F0000F090BF1040EA0E00CFA03F6324072D085
:102300004C68022C01D0122C0ED1DC0800EB8408A2
:10231000D8F820405D07EF0E09FA07F5AC430D69C8
:10232000BD402543C8F8205007685D0091F804803F
:102330000AFA05F408F00308A74308FA05F848EA82
:102340000708C0F800804F68012F05D0022F03D086
:10235000112F01D0122F11D18768D1F80C80A7431B
:1023600008FA05F848EA0708C0F808804768B74344
:102370000E79C6F300169E403E434660C668A643EB
:102380008C68AC403443C4604C68E40054D52F4C96
:10239000256845F001052560246823F0030504F055
:1023A000010400942A4C2544AF689C07240F09FAC5
:1023B00004F6B743274EB04201D1002615E0264E61
:1023C000B04201D1012610E0244EB04201D10226D4
:1023D0000BE0234EB04201D1032606E0214EB0426D
:1023E00002D1042601E027E00526A6403E43AE6068
:1023F000DBF800405D464E689443F60300D5144375
:102400002C60DEF8004075464E689443B60300D554
:1024100014432C600C4D08352C684E689443F6022A
:1024200000D514432C60084D0C352C684E6894433D
:10243000B60200D514432C605B1C0A6832FA03F420
:102440007FF45AAFBDE8F88F000401402038024005
:102450000000014000000240000402400008024069
:10246000000C02400010024042694A40426170473D
:102470000AB1816170470904FBE700000148006868
:1024800070470000D802002002480168491C016022
:1024900070470000D802002010B5032000F066F855
:1024A000032000F005F800F017F8002010BD000030
:1024B00010B5044607484FF47A710068B0FBF1F09C
:1024C00001F0B5F800222146501E00F02FF8002040
:1024D00010BD0000DC0200200D4808B5016841F085
:1024E00000410160016801F000410091011F0A688C
:1024F00042F001020A60096801F0010100910168DF
:1025000041F080510160006800F08050009008BDEB
:102510002438024000F01F02012191404009800050
:1025200000F1E020C0F8001170470000F0B40E4B3D
:102530001B680C46C3F30223C3F10705042D00D921
:102540000425191D072901D2002300E0DB1E012606
:1025500006FA05F1491E214099409E40761E16401C
:102560003143F0BC01F06BBD0CED00E0064900F01A
:10257000070208684FF6FF03184040EA0220034AAA
:1025800010430860704700000CED00E00000FA0501
:1025900090FAA0F0044AB0FA80F002EB800000212B
:1025A000C0F880107047000000000E4290FAA0F0C2
:1025B000044AB0FA80F002EB80000121C0F88010DC
:1025C0007047000000000E420548016841F002011A
:1025D00001600448016841F00401016030BF7047A8
:1025E0000070004010ED00E02DE9F84F064600783D
:1025F000C00775D0DFF84C810027D8F80000C00074
:102600000BD4D8F8001041F08051C8F80010D8F869
:102610000000012700F0805000904B4C2068C0055E
:1026200010D4206840F480702060FFF727FF054633
:1026300005E000BFFFF722FF401B64284ED820684A
:10264000C005F7D53F4D243D286800F0C0417068B3
:1026500000F0C0428A4209D0C0F30141032905D1EC
:102660002968890302D50120BDE8F88F354C103464
:10267000216811F440314AD000F44030884246D0FD
:102680003078C00743D020684FF4000292FAA2F1DC
:10269000B1FA81F14FEA810C2C494FF0010A8C44C8
:1026A00020F44030CCF880A692FAA2F2B2FA82F27C
:1026B00001EB82010023C1F880362060C00526D5D9
:1026C000FFF7DCFE81464FF4007B0AE0FFF7D6FE01
:1026D000A0EB090141F28830814202D90320C3E70F
:1026E0002EE09BFAABF0B0FA80F040F04001BAEB7C
:1026F000511F01D1296800E021689BFAABF2B2FAC0
:1027000082F202F01F020AFA02F00142DED0706883
:10271000C0F30141032906D1296800F0C04021F02F
:10272000C041014329602068716801F440310843C9
:1027300020602FB1D8F8001021F08051C8F80010A7
:10274000002091E72438024000700040000047421A
:102750002DE9F047DFF8BC8105460E46D8F80000A9
:1027600000F00100B04214D2012E05D1D8F80010BB
:1027700041F00401C8F80010D8F8001021F0010160
:102780003143C8F80010D8F8000000F00100B04252
:1027900071D12878604C800705D52068A96820F0A1
:1027A000F000084320602878C00771D05A4A5A4B7D
:1027B00069680120083A2C33022910D003292ED051
:1027C00001292FD05FEA402797FAA7FCBCFA8CFCBE
:1027D0004CF0200C5FEA5C1C04D0126803E04FF45C
:1027E0000037F1E71A6897FAA7F3B3FA83F303F017
:1027F0001F039840024262D0206820F00300084383
:102800002060FFF73BFE6968074641F288300229E5
:1028100010D003291CD00129814626D034E04FF086
:102820000077D1E70227CFE7FFF728FEC11B494514
:1028300001D926E081462068C0F381000228F3D147
:1028400026E000BFFFF71AFEC11B494501D918E079
:1028500081462068C0F381000328F3D118E000BF4F
:10286000FFF70CFEC11B49450BD82068C0F381005F
:102870000128F5D10CE022E0FFF700FEC11B49451D
:1028800002D90320BDE8F087206810F00C0FF3D1C7
:10289000D8F80010404601F00101B14211D9012ED3
:1028A00003D1016841F004010160016821F00101D8
:1028B00031430160006800F00100B04201D0012006
:1028C000E0E72878400705D52068E96820F4E06053
:1028D000084320602878000706D52068296920F47D
:1028E000605040EAC100206000F04CF82168F022FE
:1028F00092FAA2F201F0F001B2FA82F2D140074A54
:10290000515CC840064908600320FFF7D1FD002054
:10291000B8E70000003C024008380240AF690008F8
:10292000DC02002008480949006809684FF4E062A9
:1029300092FAA2F201F4E061B2FA82F2D140044AC2
:10294000515CC84070470000DC020020083802409B
:10295000BF69000808480949006809684FF46052D7
:1029600092FAA2F201F46051B2FA82F2D140044A22
:10297000515CC84070470000DC020020083802406B
:10298000BF6900081B4A11681B4801F00C03042BA7
:1029900012D0082B10D00C2B0FD0101F006800F4A1
:1029A00060414FF4604090FAA0F0B0FA80F0C1406E
:1029B0004FF40040491C884070474FF4701393FA5D
:1029C000A3F301F47010B3FA83F3D8400B4B01F476
:1029D00040011268185C4FF4400393FAA3F3B3FA72
:1029E00083F3D940D203044A491C5043B0FBF1F0B1
:1029F00070470000083802400024F400A66900086F
:102A00002DE9F84F07460078FB4EFC4DC0074FF00C
:102A1000010428D0F848083001684FF40038C1F3A9
:102A20008101022907D00168C1F3810103291BD16B
:102A30000068C00318D598FAA8F0B0FA80F040F00A
:102A40002000400901D0306800E0286898FAA8F119
:102A5000B1FA81F101F01F0104FA01F108425CD0E2
:102A6000786800287BD058E0786801280AD008B13F
:102A7000052811D0306820F480303060306820F4B0
:102A8000802002E0306840F480303060786828B3FD
:102A9000FFF7F4FC81460BE0306840F480203060A2
:102AA000F0E700BFFFF7EAFCA0EB0900642872D84A
:102AB00098FAA8F0B0FA80F040F02000400901D068
:102AC000306800E0286898FAA8F1B1FA81F101F0C5
:102AD0001F0104FA01F10842E4D01EE0FFF7CEFC2A
:102AE000814605E0FFF7CAFCA0EB09006428DED8A8
:102AF00098FAA8F0B0FA80F040F02000400901D028
:102B0000306800E0286898FAA8F1B1FA81F101F084
:102B10001F0104FA01F10842E4D13878DFF8E082BD
:102B200080074FF0000B4FF002095FD5B248083024
:102B30000168C1F38101012907D00168C1F3810156
:102B400003291CD10068C00319D499FAA9F0B0FA7E
:102B500080F040F02000400902D0306801E086E0BB
:102B6000286899FAA9F1B1FA81F101F01F0104FA7C
:102B700001F108422BD0F868012878D127E0F868E5
:102B8000A8B394FAA4F0B0FA80F048F82040FFF718
:102B900075FC824606E066E1FFF770FCA0EB0A00D8
:102BA000022884D899FAA9F1B1FA81F141F0200103
:102BB000490901D0316800E0296899FAA9F0B0FA12
:102BC00080F000F01F0004FA00F00142E4D08A48CF
:102BD000001D01684FF4F85393FAA3F33A69B3FA6E
:102BE00083F321F4F8519A401143016025E0FFE797
:102BF00094FAA4F1B1FA81F148F821B0FFF73EFC54
:102C0000824605E0FFF73AFCA0EB0A000228C8D88C
:102C100099FAA9F0B0FA80F040F02000400901D004
:102C2000306800E0286899FAA9F1B1FA81F101F061
:102C30001F0104FA01F10842E4D138784FF4007A18
:102C4000C0067CD56C480830006810F00C0F0FD01F
:102C5000B9694FF48070002972D090FAA0F0B0FAF0
:102C600080F048F82040FFF709FC00907EE087E004
:102C70009AFAAAF0B0FA80F040F02000400901D0A2
:102C8000306800E028689AFAAAF1B1FA81F101F0FF
:102C90001F0104FA01F1084202D0B86900286FD080
:102CA0005548396A001D006800F4604081421AD915
:102CB000084601F0D5F9002862D14F48001D01688F
:102CC0003A6A21F460411143016001684FF07F438B
:102CD00093FAA3F3FA69B3FA83F321F07F419A40A0
:102CE0001143016018E04448001D026822F460426C
:102CF0000A43026001684FF07F4393FAA3F3FA6935
:102D0000B3FA83F321F07F419A4011430160386A9E
:102D100001F0A6F90028CFD14FF4604191FAA1F15A
:102D2000386AB1FA81F1C8404FF40041401C81403B
:102D3000314808300068F02200F0F00001E070E057
:102D400040E092FAA2F2B2FA82F2D0402D4A105C30
:102D5000C1402D4801600320FFF7AAFB61E000BFDE
:102D6000FFF78CFB0099401A02287CD89AFAAAF047
:102D7000B0FA80F040F02000400902D0306801E055
:102D8000BCE128689AFAAAF1B1FA81F101F01F01B9
:102D900004FA01F10842E3D01748001D01683A6ABD
:102DA00021F460411143016001684FF07F4393FAC1
:102DB000A3F3FA69B3FA83F321F07F419A401143F8
:102DC00001602EE090FAA0F0B0FA80F048F820B050
:102DD000FFF754FB009005E0FFF750FB0099401A05
:102DE0000228C2D89AFAAAF0B0FA80F040F0200087
:102DF00040090BD030680AE0003802403438024005
:102E000000004742AF690008DC02002028689AFAF7
:102E1000AAF1B1FA81F101F01F0104FA01F10842AF
:102E2000DAD13878000753D5786948B394FAA4F01A
:102E3000B0FA80F008EB8000C0F88046FFF71EFB78
:102E4000009005E0FFF71AFB0099401A02288CD881
:102E500099FAA9F0B0FA80F040F04000B4EB501FAE
:102E600002D1306801E08EE0286899FAA9F1B1FA40
:102E700081F101F01F0104FA01F21042E2D027E0D3
:102E800094FAA4F1B1FA81F108EB8101C1F880B69E
:102E9000FFF7F4FA009005E0FFF7F0FA0099401A06
:102EA000022870D899FAA9F0B0FA80F040F04000FA
:102EB000B4EB501F01D1306800E0286899FAA9F1FD
:102EC000B1FA81F101F01F0104FA01F21042E3D1DD
:102ED000387840077BD59B484FF000090068C00058
:102EE0000AD49848016841F08051016000684FF0B1
:102EF000010900F08050009093480168C90511D481
:102F0000016841F480710160FFF7B8FA009005E0B4
:102F1000FFF7B4FA0099401A642834D88A48006848
:102F2000C005F5D5B86801280AD008B1052811D028
:102F3000286820F480702860286820F4806002E00F
:102F4000286840F480702860B86848B3FFF796FAA4
:102F500000900DE0286840F480602860F0E700BF32
:102F6000FFF78CFA0099411A41F2883081420AD861
:102F70009AFAAAF0B0FA80F040F04000B4EB501F8B
:102F800002D1306801E095E028689AFAAAF1B1FA16
:102F900081F101F01F0104FA01F21042E0D022E0B9
:102FA000FFF76CFA009007E0FFF768FA0099411A02
:102FB00041F2883081427DD89AFAAAF0B0FA80F0C6
:102FC00040F04000B4EB501F02D1306801E012E045
:102FD00028689AFAAAF1B1FA81F101F01F0104FA06
:102FE00001F21042E0D1B9F1000F04D05548016858
:102FF00021F080510160786AE8B3DFF84891A9F1C7
:103000001C09D9F80010C1F38101032976D00228E8
:103010004FF080714FF0007A58460BD091FAA1F131
:10302000B1FA81F148F82100FFF728FAB0460746C7
:1030300056466DE04FF0807191FAA1F1B1FA81F13D
:103040008A0042495050FFF719FAB3468046564667
:1030500006E000BFFFF712FAA0EB0800022854D8E0
:1030600096FAA6F0B0FA80F040F02000400903D0B4
:10307000DBF8000001E061E0286896FAA6F1B1FAF9
:1030800081F101F01F0104FA01F10842E2D1D7E910
:103090000A103A6BD9F80030014323F47D031A4338
:1030A0001143C9F800104FF0807090FAA0F0B0FA08
:1030B00080F000E029E0810024480C50FFF7DEF9A1
:1030C000074604E0FFF7DAF9C01B02281DD896FA7C
:1030D000A6F0B0FA80F040F02000400902D0DBF802
:1030E000000000E0286896FAA6F1B1FA81F101F03B
:1030F0001F0104FA01F10842E4D01FE020E000BF04
:10310000FFF7BCF9C01B022802D90320BDE8F88FE5
:1031100096FAA6F0B0FA80F040F02000400902D004
:10312000D8F8000000E0286896FAA6F1B1FA81F11B
:1031300001F01F0104FA01F10842E1D10020E5E7A6
:103140000120E3E7243802400070004000004742BD
:103150002DE9F0470446007F01281CD00126267780
:10316000022060772168CA204862216853204862A3
:103170002068816821F4806181602068816821F481
:1031800080418160FFF77AF9054600274FF0FF087C
:103190004FF47A790EE00220BDE8F087FFF76EF970
:1031A000401B484506D92168C1F824800320607778
:1031B0002777F1E72068C0684007EFD52168C1F89C
:1031C0002480667727770020E6E72DE9F74F04464D
:1031D000007F934601281BD04FF0010884F81C8023
:1031E000022060772168CA2048622068532141622A
:1031F000206880684FF0000540054FF0FF064FF053
:10320000030A4FF47A790FD5FFF738F9074607E03C
:103210000220BDE8FE8FFFF731F9C01B484511D8E9
:103220002068C0684007F6D42068816821F4806176
:103230008160FFF723F907460BE0FFF71FF9C01B7A
:10324000484506D92068466284F81DA025770320EA
:10325000DFE72068C0684007EFD52068816821F06B
:10326000070181602068816841EA0B018160216863
:10327000019848612068816841F48061816020681C
:10328000466284F81D8025770020C2E72DE9F74FBC
:103290000446007F8B4601281BD04FF0010884F8BC
:1032A0001C80022060772168CA2048622168532070
:1032B0004862206880684FF0000540054FF0FF0627
:1032C0004FF0030A4FF47A790FD5FFF7D7F8074686
:1032D00007E00220BDE8FE8FFFF7D0F8C01B48458D
:1032E00019D82068C0684007F6D42068816821F4A6
:1032F000806181602068C16801F0800161F49061A3
:10330000C160FFF7BBF807460CE000BFFFF7B6F857
:10331000C01B484506D92068466284F81DA0257761
:103320000320D7E72068C0684007EFD52168C1F8BF
:1033300014B02068816821F00701816020688168ED
:10334000029A114381600E48016841F480110160C6
:103350000B480830016841F48011016020688168E1
:1033600041F4804181602068816841F4806181601E
:103370002068466284F81D8025770020AAE70000B7
:103380000004014070B5040002D0607F10B106E077
:10339000012070BD00202077204600F041F8022077
:1033A00060772168CA20486221685320486220461D
:1033B00000F0AAFEFF210028206803D0416204200B
:1033C0006077E5E78268154B1A4082602268906852
:1033D00063681843D4E904352B431843906022688E
:1033E000E068106120680269238942EA03420261B1
:1033F0002068C26822F08002C2602068026C22F459
:10340000802202642068026CA3691A430264206867
:10341000416201206077002070BD0000BFFF8FFF78
:103420000068074988420AD10120810591FAA1F17B
:10343000044AB1FA81F102EB8101C1F880067047BC
:1034400000280040000047422DE9F0470446007F75
:103450000B46012825D04FF0010984F81C9002206A
:103460006077587802B300F03BFE987800F038FEA1
:103470009878D97840EA014558781978000240EAEE
:10348000413005432168CA204862216853204862C0
:10349000204600F039FE0026FF274FF0040838BB15
:1034A00019E00220BDE8F087C10603D500F0EF0067
:1034B0000A305870D87800F01CFE0204587800F0EA
:1034C00018FE42EA0022987800F013FE02431878B2
:1034D00042EA4035D6E70D4805402068456020683F
:1034E000C16821F08001C160204600F085F830B14C
:1034F0002068476284F81D8026770120D2E7206883
:10350000476284F81D9026770020CBE73FFFFF003D
:103510002DE9F0470446007F0D46012811D04FF0F9
:10352000010A84F81CA002206077206800268068C9
:103530004FEA406042B100281ADA287800F0D0FD46
:1035400017E00220BDE8F087002800DBEE70287845
:1035500000F0CFFD0204687800F0CBFD42EA0022C3
:10356000A87800F0C6FD0243E87842EA00470AE086
:10357000EE70A878297840EA01476878E978000277
:1035800040EA014007432168CA204862216853206D
:103590004862204600F0B8FD4FF0FF084FF00409E4
:1035A000C0B914480740206807602068816821F48A
:1035B00080218160D5E90101084321688A681043B0
:1035C00088602068C16821F08001C160204600F059
:1035D00013F838B12168C1F8248084F81D9026774B
:1035E0000120AFE72168C1F8248084F81DA0267768
:1035F0000020A7E77F7F7F0070B504460068C168A0
:1036000021F0A001C160FEF739FF05464FF47A763C
:1036100007E000BFFEF732FF401BB04201D9032094
:1036200070BD2068C0688006F4D5002070BD10B55C
:10363000401EB0F1807F01D3012010BD4FF0E02487
:1036400060610F21601700F0FAFC0020A0610720E4
:103650002061002010BD30B590F83420012A20D020
:10366000012280F83420022380F8353003685C683A
:1036700024F070045C6003685C680D682C435C6037
:1036800003689C6824F080049C6003689C68496817
:103690000C439C6080F83520002180F834100846E7
:1036A00030BD022030BD10B5040003D094F83500C1
:1036B00010B107E0012010BD002084F8340020463E
:1036C00000F00CF8022084F83500211D206800F07D
:1036D000DBFD012084F83500002010BD08B500682E
:1036E0000B49884212D10B48016841F0100101607A
:1036F0000068002200F01000009003212B20FEF74C
:1037000015FFBDE808402B20FEF704BF08BD0000F0
:1037100000100040243802400168CA6842F00102EB
:10372000CA600068016841F0010101600020704733
:10373000704770B50446006801694FF00005C94341
:10374000890715D4C168C943890711D4E91E0161ED
:1037500001202075206880698007204602D0FFF78D
:10376000E7FF04E000F078F8204600F076F82575D1
:1037700020680169C943490717D4C168C94349078B
:1037800013D46FF004010161022020752068806964
:1037900010F4407F204602D0FFF7CAFF04E000F09B
:1037A0005BF8204600F059F8257520680169C94387
:1037B000090716D4C168C943090712D46FF008017C
:1037C0000161042020752068C0698007204602D06E
:1037D000FFF7AEFF04E000F03FF8204600F03DF8B0
:1037E000257520680169C943C90617D4C168C94352
:1037F000C90613D46FF010010161082020752068FC
:10380000C06910F4407F204602D0FFF791FF04E02A
:1038100000F022F8204600F020F8257520680169A4
:10382000C943C90708D1C168C943C90704D1891E62
:103830000161204600F012F820680169C943490679
:1038400009D4C168C943490605D46FF0400101613C
:10385000204600F011F870BD7047704710B5022087
:10386000FDF7D6FF0220FEF795F802484178491C83
:10387000417010BDD4020020704710B504460068A6
:10388000416921F0C0014161206B08B1FEF7F3FAF4
:10389000606B08B1FEF7EFFA012084F839000020D0
:1038A00010BD704738B5044600680168C26811F061
:1038B000010F02F4807204D01AB1E16B41F00101F2
:1038C000E1630168C1F34002416901F0010122B1E5
:1038D00019B1E26B42F00402E2630268C2F38002B3
:1038E00022B119B1E26B42F00202E2630268C2F354
:1038F000C00222B119B1E16B41F00801E163016836
:10390000C068C1F3401100F0200019B110B1204689
:1039100000F0E0FE20680168C068C1F3C01100F04B
:10392000800019B110B1204601F078F821680868CC
:10393000CA68C0F3801002F04002012570B16AB17C
:10394000CA68204622F04002CA6094F83910322931
:1039500011D080F8395000BF00F0C4F9E06B0028A6
:1039600008D0206801684068009084F839502046EB
:10397000FFF797FF38BD222180F83910ECE770B5CA
:10398000040004D094F83900002510B106E00120AD
:1039900070BD84F83850204600F020F8022084F8EA
:1039A00039002068C16821F40051C160204600F050
:1039B000E5FE2068016921F49041016120684169B8
:1039C00021F02A0141612068C16841F40051C160C1
:1039D000E563012084F83900002070BD2DE9F0472F
:1039E00086B0064614216846FCF7CCFBDFF87C81E4
:1039F000316800245E48022201230325DFF874A108
:103A000080274FF0070C414533D1011DD1F80080CC
:103A100048F48048C1F80080096801F480410591AC
:103A2000016841F0010101600068694600F0010091
:103A3000059068028DE82D105046FEF74FFC4F4D63
:103A40004D48C5E90004C5E902472C6180146C614A
:103A5000C5E906402846FEF77BFA08B1FEF770F884
:103A600075630022022125206E62FEF75FFD25208E
:103A70003BE0DFF80C81DFF8F890414509F10809D7
:103A800038D1D9F8008048F40038C9F80080D9F856
:103A9000001001F400310591016841F0010101605D
:103AA0000068694600F0010005900C208DE82D109B
:103AB0005046FEF713FC314D2F4844351430C5E90C
:103AC0000004C5E902472C616C61AC612846EC61D9
:103AD000FEF73EFA08B1FEF733F8756300220321C2
:103AE00026206E62FEF722FD2620FEF713FD06B0AB
:103AF000BDE8F087DFF88C804145F8D1D9F8008027
:103B000048F48028C9F80080D9F8001001F4802119
:103B10000591016841F0020101600068694600F00A
:103B2000020005904FF440608DE82D101648FEF716
:103B3000D5FB124D104888352838C5E90004C5E981
:103B400002472C614FF400506C61C5E906402846DD
:103B5000FEF7FEF908B1FDF7F3FF756300220121BE
:103B600027206E62FEF7E2FC2720BEE70038014006
:103B70001C3802400000024058600240B00B002098
:103B800000440040004800400004024070B5044674
:103B900090F83900012801D0122832D169B362B3FC
:103BA00094F8380001282CD0012084F83800A16254
:103BB000A2850025E56394F8390012281FD0222041
:103BC00084F83900636B10489862636B0F48D862C1
:103BD000636B0F48186308461346666B21680246FC
:103BE0003046091DFEF7E6F92068416941F04001C1
:103BF000416184F83850002070BD012070BD322032
:103C0000DEE7022070BD000095460008CB460008A4
:103C100077460008704770472DE9F047044690F852
:103C2000390099460D46012801D0222858D12DB3DC
:103C300022B394F83800012852D0012684F8386065
:103C40000027E76394F8390022281AD05FF01200A9
:103C500084F83900A284E2844FF48058E08C4B460B
:103C6000401EE084A0684FF0000240454FF0800104
:103C7000204613D100F005FF08BB04E00120BDE899
:103C8000F0873220E4E728882168C0F30800486004
:103C9000206908B16D1C08E0AD1C06E000F0F1FEE3
:103CA00068B9216815F8010B4860E08C0028D5D16F
:103CB0004B4600224021204600F0E3FE08B10320DD
:103CC000DDE794F83900322806D084F8396000BF67
:103CD00084F838700020D2E7222084F83900F7E712
:103CE0000220CCE77047FEE7114808B5016841F0B3
:103CF000807101600068002200F080700090114621
:103D00000D20FEF713FC0D20FEF704FC00221146E7
:103D10000F20FEF70BFC0F20FEF7FCFB00221146E4
:103D20001020FEF703FCBDE808401020FEF7F2BBB0
:103D30001C3802402DE9F04186B014216846FCF79A
:103D400021FA2348016841F004010160016801F093
:103D500004010591016841F020010160016801F052
:103D600020010591016841F001010160016801F045
:103D700001010591016841F0020101600068154FE1
:103D800000F002004FF49874059000222146384656
:103D9000FEF76EFBDFF840804FF48046002231468C
:103DA0004046FEF765FB0125CDE90045002402945D
:103DB000694638460394FEF791FA0096CDE901541E
:103DC000694640460394FEF789FA06B0BDE8F081E3
:103DD0001C38024000000240000402401FB50024CD
:103DE00020480094019402941D490394C0E90014F2
:103DF0007F218160FF21C0E9031444618461FFF7E2
:103E0000C1FA08B1FDF79CFE8DF800408DF8014025
:103E10008DF8024001940122694612480294FFF78E
:103E200077FB08B1FDF78CFE01208DF80C008DF8B2
:103E30000D008DF80E0002468DF80F4003A90948C9
:103E4000FFF702FB08B1FDF77BFE04220A210548BB
:103E5000FFF7BBF9002801D0FDF772FE1FBD00007F
:103E600000280040980A00201CB500240E48009449
:103E70000C490194016040F67F41C0E9011442F20F
:103E80000F71C160FFF70FFC08B1FDF759FE0094F8
:103E9000694605480194FFF7DEFB002801D0FDF7D5
:103EA0004FFE1CBD00100040B80A00200C4810B5A1
:103EB0000A4901604FF416514160002181600C22D3
:103EC000C160C0E904128161C161FFF758FD00289B
:103ED00003D0BDE81040FDF733BE10BD00380140EF
:103EE000F00A00200C4810B50A4901604FF4E13196
:103EF0004160002181600C22C160C0E9041281612F
:103F0000C161FFF73CFD002803D0BDE81040FDF77C
:103F100017BE10BD00440040300B00200C4810B507
:103F20000A4901604FF416514160002181600C2262
:103F3000C160C0E904128161C161FFF720FD002862
:103F400003D0BDE81040FDF7FBBD10BD00480040A8
:103F5000700B0020FEE700004FF4FA710148FCF7F7
:103F600011B900001E0300203EB5012440F2DD120D
:103F70001AA11FA001F0B0FC254826A102786846CE
:103F800000F010FE4FF4C87503E0641E14F0FF0447
:103F900006D02A4622A1684601F0F0FD0028F4D19F
:103FA000012403E0641E14F0FF0406D02A461CA17D
:103FB0001CA001F0E3FD0028F4D102244FF4FA65BF
:103FC00003E0641E14F0FF0406D02A4614A118A0D2
:103FD00001F0D4FD0028F4D13EBD00002E2E5C423D
:103FE00073705C6273705F626332382E630000002E
:103FF00046494C453A25732C4C494E453A25643A7E
:104000002064657669636520656E640A00000000BF
:104010001205002041542B4E534F434C3D25630065
:104020004F4B000041542B43474154543D30000056
:1040300041542B4346554E3D300000007047090760
:10404000090E002806DA00F00F0000F1E02080F8E9
:10405000141D704700F1E02080F80014704770478D
:1040600038B51C49002309681B4A11F0F00F23D111
:1040700018491C310C68E500184C03D5216801F47F
:10408000C0540EE00D6845F080550D600D6805F0D8
:104090008055009524680D6804F4C05425F08055BF
:1040A0000D60B4F5C05F07D1B0F5404F04D1106882
:1040B000012340F004001060106820F00100184354
:1040C0001060106800F00100984201D0012038BD56
:1040D000002038BD08380240003C0240007000401B
:1040E000010901EB810100F00F0000EB4100C0B2BB
:1040F0007047002102E00A38C0B2491C0A28FAD2EF
:10410000090740EA1160704770B504460068C1684D
:10411000490614D44FF0FF31C160FEF7AFF90546F0
:104120004FF47A7607E000BFFEF7A8F9401BB042D3
:1041300001D9032070BD2068C0684006F4D5002076
:1041400070BD704738B51748016841F08051016073
:104150000068154C00F0805000906068C0438007F4
:1041600003D4206840F0080020604FF40075284612
:10417000FEF70EFA0D48FEF7EBFF6068C043C0077C
:1041800003D1206840F0040020600948042201881F
:104190000648FFF77BF82846FEF708FABDE83840E6
:1041A000FEF712BA2438024000700040980A00203E
:1041B00084020020FEF768B930B595B03421684616
:1041C000FBF7E0FF14210DA8FBF7DCFF00241648E5
:1041D00012941394016821F4C05141F4006101600C
:1041E00006200125009002951020CDE90350022001
:1041F000CDE9090440040B9000010C906846FEF7DD
:10420000FFFB0F200D900320CDE90E041094012137
:104210000DA81194FEF79CFA2804CDE9125012A8BB
:10422000FEF7E2F915B030BD007000400F4801689C
:1042300041F4807101600D4908310A680C4B1A4045
:104240000A6002680B4B1A400260026822F4802266
:104250000260086820F47D0008600020091D0860E5
:1042600005494FF0006008607047000000380240C8
:104270000CC0FF88FEFFFEEE08ED00E00148FFF7EE
:1042800058BA0000B80A002070B502684FF08046A6
:10429000134B144CB04203D0984201D0A04205D138
:1042A00022F070054A682A43B0420CD098420AD0E6
:1042B000A04208D00C4B984205D00C4B984202D03B
:1042C0000B4B984203D122F44073CA681A43026030
:1042D0008A68C262096881620121416170BD000083
:1042E000000400400008004000080140000C0140AC
:1042F0000010014010B5094900240C73FDF7CAFBFA
:104300004FF4FA60FDF78EFEFDF730F820B9FCF7A8
:10431000ABFF072800D10124204610BD1205002064
:104320003EB505244FF4FA6506E0641E14F0FF0460
:1043300006D02846FDF776FE01F036FB0028F4D0C3
:10434000044805A10288684600F02CFC0120FDF716
:104350000DFB3EBD7002002076616C75653A2564E8
:104360000A0000007CB55549087B00287ED0401E1D
:104370000873FDF763F9514817300446FBF72BFF2C
:10438000B0F5967F04D9BDE87C404DA001F0A4BAF9
:104390005249204602F054F90346504A8E2150A05B
:1043A000FDF74FFB4D4801F006FA050076D001F00D
:1043B000E7F904286DDC4FA1284601F0EEF9006909
:1043C00006224D49FBF739FF002862D14BA1284650
:1043D00001F0E3F9E8B1C16808291AD140694FF644
:1043E000FE72411E914214D24349891E0A889042AE
:1043F0000FD008808820009008880190002342A2F6
:10440000A72137A0FDF71DFB022269464148FDF7B1
:1044100001FC41A1284601F0C0F9040017D0E06872
:10442000102814D12069FBF7D6FE06280FD13CA135
:104430003148226900F0B6FB06222F493948FDF7C2
:1044400063FC002334A2B72125A0FDF7FAFA36A1B8
:10445000284601F0A2F904001BD0E068102818D10A
:104460002069FBF7B8FE182813D200E019E02248B3
:104470002BA10830226900F095FB1F491922083151
:104480002A48FDF741FC002327A2C52114A0FDF70F
:10449000D8FA284601F050F903E0FFE724A001F024
:1044A0001BFA284C94F83400012806D1611C1CA08A
:1044B00001F012FA002084F834007CBD12050020BF
:1044C000636A736F6E2072656364617461206275E4
:1044D00066206F766572666C6F770A00600900204F
:1044E0002E2E5C4273705C6273705F7461736B2E0E
:1044F00063000000696400008602002077616B653C
:1045000074696D650000000057616B6554696D65E5
:104510000000000000F50008736574696400000085
:104520002573000000F000086970000000F3000827
:10453000636A736F6E20496E76616C696420646192
:1045400074610A003500002070B501F0D1F8040054
:104550004ED02AA22BA101F083F82C4A2CA1204690
:1045600001F07EF82B4A2CA1204601F079F8294A67
:104570002AA10A32204601F073F826481338807CBD
:10458000FCF7DCF802460B4626A1204601F04EF867
:10459000204A25A1133A204601F062F81B4A24A1C3
:1045A0000832204601F05CF822480088FCF7C6F883
:1045B00002460B4620A1204601F038F81348801E21
:1045C0000088FCF7BBF802460B461DA1204601F00F
:1045D0002DF8204601F066F9050004D0FDF7B0F88B
:1045E000284600F005FB2046BDE8704001F0A4B865
:1045F000BDE8704015A001F06FB900004A44445A6C
:104600000000000074797065000000008602002040
:1046100069640000310700207663630074656D7083
:104620000000000063737100696D73690000000091
:10463000697000007002002073656E736F72000075
:1046400077616B6574696D6500000000636A736F64
:104650006E2073656E6420627566206F7665726683
:104660006C6F770A0000000010B5FFF77DFCBDE815
:104670001040FFF767BD10B5406A0021C185C184B5
:10468000012180F83910C16B41F01001C163FFF7BF
:1046900008F910BD10B50146406A09680968890625
:1046A0000ED40021C18501684A6922F040024A61A6
:1046B00090F83910322906D05FF0010180F83910E6
:1046C000FFF7A8FA10BD1221F8E710B5406AFFF70E
:1046D000A2FA10BD10B590F83910222903D0322962
:1046E00001D0022010BD8168B1F5805F11D0016951
:1046F000002901681FD0496801F07F03816A4A1CC4
:1047000082620B70C18D491E0904090CC18518D045
:1047100030E00269816A002A0268526805D0D2B28C
:104720000A80816A491C8162ECE7C2F308020A80B0
:10473000816A891CF7E74A68816A4B1C83620A70A8
:10474000E0E70168CA6822F02002CA6090F83910D8
:10475000322911D00168CA6822F48072CA600168E7
:104760004A6922F001024A615FF0010180F83910C4
:10477000FFF750FA002010BD1221F7E72DE9F041B4
:10478000044600680169E26821F440511143016167
:104790002169A068E26908436169114308432168FF
:1047A000CA6849F20C639A430243CA6020684169AF
:1047B000A26921F4407111434161E1696425B1F5B9
:1047C000004F954821684FF032083DD081427AD1A0
:1047D000FEF7C0F800EBC00101EB00106168890032
:1047E000B0FBF1F6FEF7B6F800EBC00101EB0010EC
:1047F00061688900B0FBF1F0B0FBF5F06FF01801D3
:10480000484306EB800108EB0110B0FBF5F000F027
:10481000F006FEF79FF800EBC00101EB00106168A5
:104820008900B0FBF1F0B0FBF5F006EB0016FEF7E7
:1048300091F800EBC00101EB001061688900B0FB4A
:10484000F1F7FEF787F8D0E081423DD1FEF782F81C
:1048500000EBC00101EB001061684900B0FBF1F012
:10486000B0FBF5F00601FEF775F800EBC00101EBB7
:10487000001061684900B0FBF1F7FEF76BF800EB40
:10488000C00101EB001061684900B0FBF1F0B0FB22
:10489000F5F06FF01801484307EB800108EBC10009
:1048A000B0FBF5F000F0F80006EB4006FEF752F81A
:1048B00000EBC00101EB001061684900B0FBF1F7AB
:1048C000FEF748F83CE055E0FEF72CF800EBC0019D
:1048D00001EB001061684900B0FBF1F0B0FBF5F0AE
:1048E0000601FEF71FF800EBC00101EB0010616844
:1048F0004900B0FBF1F7FEF715F800EBC00101EB42
:10490000001061684900B0FBF1F0B0FBF5F06FF00A
:104910001801484307EB800108EBC100B0FBF5F03C
:1049200000F0F80006EB4006FDF7FCFF00EBC001CD
:1049300001EB001061684900B0FBF1F7FDF7F2FFF1
:1049400000EBC00101EB001061684900B0FBF1F021
:10495000B0FBF5F06FF01801484307EB800108EB5E
:10496000C100B0FBF5F000F007002168304488601A
:10497000BDE8F081FDF7D6FF00EBC00101EB0010B0
:1049800061688900B0FBF1F6FDF7CCFF00EBC001D8
:1049900001EB001061688900B0FBF1F0B0FBF5F0AD
:1049A0006FF01801484306EB800108EB0110B0FBE3
:1049B000F5F000F0F006FDF7B5FF00EBC00101EBEC
:1049C000001061688900B0FBF1F0B0FBF5F006EB78
:1049D0000016FDF7A7FF00EBC00101EB00106168B6
:1049E0008900B0FBF1F7FDF79DFF00EBC00101EB83
:1049F000001061688900B0FBF1F0B0FBF5F06FF0DA
:104A00001801484307EB800108EB0110B0FBF5F0FB
:104A100000F00F00A9E700000038014090F83910BD
:104A2000122903D0322901D0022070478168B1F5E4
:104A3000805F016A0BD04A1C0262026809785160EB
:104A4000C18C491E0904090CC1840ED017E00988E5
:104A50000268C1F30801516001690029016A02D0AE
:104A6000491C0162ECE7891CFBE70168CA6822F077
:104A70008002CA600068C16841F04001C160002046
:104A800070472DE9F0471D4690460E460446FDF757
:104A9000F5FC07465FEA08004FF000094FF00108F7
:104AA00008D030E0681C05D095B1FDF7E7FCC01BCD
:104AB000A8420DD82068006836EA0000F2D127E04D
:104AC000681C20D025B1FDF7D9FCC01BA8421AD91B
:104AD0002068C16821F08001C1602068C16821F0B0
:104AE0002001C1602068C16821F48071C160206824
:104AF000416921F00101416184F8398084F83890DE
:104B00000320BDE8F0872068006836EA0000D7D0AF
:104B10000020F6E710B5FCF78FFE0548FEF7C2FE51
:104B20000449034811F8012BBDE81040FFF72EB8E7
:104B3000F00A00200000002010B5FCF7A3FE054895
:104B4000FEF7B0FE0449034811F8012BBDE8104000
:104B5000FFF71CB8300B00203500002010B5FCF723
:104B6000B7FE0548FEF79EFE0449034831F8042BC2
:104B7000BDE81040FFF70AB8700B00206A00002063
:104B8000FEE700000FB4054B10B503A9044A0298D4
:104B900000F05EF910BC5DF814FB000091590008AC
:104BA000E00200200FB4084B10B504A902AA039834
:104BB00000F04EF9044602A9002000F0E0FC204677
:104BC00010BC5DF814FB00007F55000837B5144693
:104BD0000846064B6A46214600F03AF90446694603
:104BE000002000F0CCFC20463EBD00007F550008B0
:104BF00030B528B1144C031F002021680A4605E097
:104C0000084630BD9A4203D810465268002AF9D1AE
:104C1000002800D041680BD00468A3EB0005A54232
:104C200004D11B681C440346046002E0436000E0BA
:104C300023603AB11C68D51AA54203D115682C44EB
:104C40001C6052685A6030BDE40200202DE9F04734
:104C500082460F4C10480D4E0E4F001B4FF00008BF
:104C600020F007054FF0010900221146504600F0E0
:104C700009FF002802D1306810B10020BDE8F0879C
:104C80003C60C4E90058C6F80090EDE7E802002057
:104C90009C0C0020E40200209814002002E008C8C8
:104CA000121F08C1002AFAD170477047002001E0A6
:104CB00001C1121F002AFBD1704700002DE9FF5FE0
:104CC00082B00021DDE90430020DDDF840B003437D
:104CD00018D044F61050A2F2FF3242431514119836
:104CE00001281FD0A5EB0B00401C5FEA000A4FF023
:104CF00000064E4FDFF83891B046504615D5CAF140
:104D0000000413E0119801244AA3012801D16FEA9D
:104D10000B010298119AC0E90031C0E9024206B0C5
:104D2000BDE8F09FCBF10000DFE704460021404AD8
:104D3000491842EB0450CDE9001012E0E00707D01B
:104D400032463B4640464946FBF740FF804689468F
:104D500032463B4610461946FBF738FF06460F46DB
:104D60006410002CEAD1DDE90401DDE90023BAF189
:104D7000000F06DAFBF72AFF42464B46FBF726FFF9
:104D800005E0FBF795FF42464B46FBF791FF0446D3
:104D90000E460022284BFBF715FD03D84FF0FF30DD
:104DA000014607E00022254B20463146FBF767FE0F
:104DB000FBF7F9FF102409E0002C0ADB0A2200238C
:104DC000FBF72EFD039B30321A55641E50EA010298
:104DD000F2D1641C039AC4F111031444119A012AFC
:104DE00003D0012208430DD10AE0084304D000207B
:104DF0004FF0110B119072E7A3EB0B056D1E0DE048
:104E00005B4504DD4FF0000205F1010504E003DA23
:104E10004FF00002A5F10105002AECD0029811998B
:104E2000C0E90231C0E9004579E700000000144004
:104E30000000F03F300000000000F0430000E03FC1
:104E400030380A2801D20120704700207047000046
:104E50002DE9FF4F95B09B468946064600250FE297
:104E6000252877D100242746F84A0121059400E03F
:104E7000044316F8013F203B01FA03F01042F7D13A
:104E800030782A2811D06FF02F033078A0F130024B
:104E9000092A16D8059A44F0020402EB820203EBB9
:104EA00042021044761C0590EFE759F8042B059256
:104EB000002A03DA504244F40054059044F00204FE
:104EC000761C30782E2816D116F8010F44F0040411
:104ED0002A280DD06FF02F023078A0F13003092B73
:104EE00009D807EB870302EB4303C718761CF3E7E7
:104EF00059F8047B761C30786C280FD006DC4C28DF
:104F000017D068280DD06A2814D104E0742810D076
:104F10007A280FD10DE044F400140AE044F4801420
:104F200001E044F440147278824202D104F5801406
:104F3000761C761C307866280BD013DC582877D086
:104F400009DC002875D04528F6D04628F4D047283B
:104F50001AD19DE118E0632835D0642879D06528FE
:104F600012D195E1702873D008DC6728F1D0692848
:104F70006FD06E280DD06F2806D1B5E073282CD0E5
:104F8000752875D0782874D05A46179990476D1CAB
:104F900075E1C4F30250022809D003280DD0D9F8D6
:104FA000001004280DD00D6009F1040967E1D9F85B
:104FB0000010EA17C1E90052F6E7D9F800100D8099
:104FC000F2E70D70F0E719F8041B8DF800100020CF
:104FD0008DF80100EA46012003E059F804AB4FF0D8
:104FE000FF3061074FF0000102D40DE008F101012C
:104FF0008846B9420FDA8045F8DB1AF80810002914
:10500000F4D108E008F1010188468142FADB1AF880
:1050100008100029F6D105985B46A0EB0807214649
:105020003846179A00F094FA284400EB080507E088
:105030004DE029E10DE01AF8010B5A461799904707
:10504000B8F10108F7D25B4621463846179A13E1BA
:1050500042E00A220092C4F302524FF0000A022AF0
:1050600008D059F804CB032A4FEAEC710AD00DE0BE
:1050700029E02AE009F1070121F00702F2E802C164
:10508000914609E00FFA8CFC4FEAEC71042A03D137
:105090004FFA8CFC4FEAEC71002907DA0A4600212E
:1050A000DCF1000C61EB02012D2202E0220504D5A7
:1050B0002B228DF80420012203E0E20701D02022F8
:1050C000F7E7904659E00A2102E010220DE0102196
:1050D0004FF0000A00910BE010224FF0000A44F05C
:1050E00004040827009203E008224FF0000A00920F
:1050F000C4F30252022A05D059F804CB0021032A36
:1051000008D009E009F1070121F00702F2E802C125
:10511000914605E01FFA8CFC042A01D10CF0FF0C2B
:105120004FF00008220728D5702806D0009B83F096
:10513000100353EA0A0305D00EE040228DF8042044
:10514000012208E05CEA010206D030228DF804203A
:105150008DF8050002229046009B83F0080353EA75
:105160000A030AD15CEA010201D1620705D53022A7
:105170008DF804204FF001087F1E582804D034A079
:1051800003900EA802900DE036A0F9E75346604662
:10519000009AFBF745FB84460398825C0298401E08
:1051A000029002705CEA0100F0D1029806A9081A88
:1051B00000F1200A600702D524F4803400E00127C2
:1051C000574502DDA7EB0A0000E0002000EB0A01D2
:1051D000009005984144401A0590E00306D45B46D0
:1051E0002146179A059800F0B3F90544002706E018
:1051F00001A85A46C05D179990476D1C7F1C474512
:10520000F6DBE0030CD55B462146179A059800F0C3
:105210009FF9054404E030205A46179990476D1CC9
:105220000099481E00900029F5DC08E002980299D8
:105230005A460078491C0291179990476D1CBAF1A3
:105240000001AAF1010AF1DC65E100000928010072
:1052500030313233343536373839616263646566EC
:1052600000000000303132333435363738394142AE
:10527000434445460000000000F058F90544761C00
:10528000307800287FF4ECAD19B02846BDE8F08FE7
:10529000620700D4062709F1070222F0070CFCE898
:1052A0000223E14603F000485FEA080C02D00FF247
:1052B000702C0DE05FEA045C02D50FF2682C07E069
:1052C0005FEAC47C02D00FF2602C01E0AFF2700CF8
:1052D0004FF0FF3823F00043CDF850C065280CD0C4
:1052E00006DC452809D046281DD047283DD13DE0A1
:1052F000662818D067287ED138E00021112F01DB05
:10530000112000E0781CCDE9000106A90EA8FFF7E6
:10531000D5FCDDE90F010E9A03910021009207F1FF
:10532000010A04914DE04FF000400097CDE90110D3
:1053300006A90EA8FFF7C2FCDDE90F0203920E9B3F
:1053400011990022DDF80CA00093049211B9791C88
:1053500000EB010AB7EB0A0004D4C0F1FF3007F1FB
:10536000010A0490AAEB0700019044E0012F00DA43
:1053700001270021112F01DD112000E03846CDE981
:10538000000106A90EA8FFF799FCDDE90F010E9AAE
:105390000391002104910092BA4621070CD403998D
:1053A000514500DA8A46BAF1010F05DD009AAAF1EB
:1053B0000101515C302908D0B84202DA10F1040F23
:1053C00006DA0121CDE9011015E0AAF10101E9E7B2
:1053D000002805DC049901440491AAEB000102E0D5
:1053E000411C514500DD8A460499401A401C019039
:1053F0004FF000400290200704D40198504501DB93
:10540000CDF8048000208DF84F0002980DF14F0771
:10541000B0F1004F25D02B200E9002984FF00208DB
:1054200000280CDA404202902D200E9007E00A215D
:105430000298FBF7DFF93031029007F8011DB8F14F
:105440000001A8F10108F2DC02980028EFD1791ED2
:105450000E980870307800F0200040F0450007F802
:10546000020D12A8C01B00F107081498007800B1C3
:10547000012000EB0A01019801EBE071059841441D
:10548000401A401E0590E00306D45B462146179A59
:10549000059800F05DF805441498007818B15A4654
:1054A000179990476D1CE00324D55B462146179A57
:1054B000059800F04DF805441CE00498002807DB2F
:1054C000DDE90301884203DD0098405C179901E0A3
:1054D000179930205A469047049805F10105401C61
:1054E00004900198401E019004D12E205A4617992D
:1054F00090476D1CBAF10001AAF1010ADDDC05E05C
:1055000017F8010B5A46179990476D1CB8F1000126
:10551000A8F10108F4DC5B462146179A0598ABE632
:105520002D0000002B000000200000002DE9F041BC
:10553000044600251E461746880404D405E0394673
:105540002020B0476D1C641EF9D52846BDE8F081C7
:105550002DE9F041044600251E469046C80301D5BA
:10556000302700E02027880404D505E0414638466E
:10557000B0476D1C641EF9D52846BDE8F0810A6865
:10558000531C0B601070704719B110B1826812B1D2
:1055900004E000207047816005E0024610680028A2
:1055A000FBD111604A60012070472DE9F0415FEAAC
:1055B000000806981E4614460D461ED0EDB1E4B113
:1055C00018B1E06840F4007708E01946284600F07A
:1055D0006FF9050011D0E06820F40077A0898005FC
:1055E00003D4206A08B171688847E76021464046C5
:1055F0002562BDE8F041FFF7C7BF0020BDE8F0819C
:1056000010B588B103687BB142688168914206D2C7
:105610005C5C202C03D8491C81600028F5D19142A4
:1056200001D1491E816010BD002010BDF8B50C46A7
:1056300005461046194600F02BF80646002000905B
:10564000064B324621462846FFF7AFFF002830467A
:1056500002D100F071F80020F8BD0000C80200205F
:10566000F8B505460C46104600F04EF806460020F8
:105670000090064B324621462846FFF796FF002849
:10568000304602D100F058F80020F8BDC8020020D2
:1056900070B505460E46124800F082F804001CD092
:1056A0000820E060C4E906560E4A0F4B28463146F2
:1056B000FBF788F802D86FF000400DE000220B4B9A
:1056C00028463146FBF766F802D84FF0004003E069
:1056D00028463146FBF73FF86061204670BD000068
:1056E000C80200200000C0FFFFFFDF410000E0C152
:1056F00010B5044800F054F8002801D04021C160E2
:1057000010BD0000C802002070B50546094800F031
:1057100047F8040007D01020E0600649284600F052
:10572000C7F8206108B1204670BD204600F004F89B
:10573000002070BDC802002070B504460F4E19E06D
:10574000A0892568C0050AD4A06820B1FFF7F4FF3E
:10575000A089C00503D4206908B171688847A08971
:10576000800503D4206A08B17168884771682046B3
:1057700088472C46002CE3D170BD0000C8020020F1
:1057800001004FF0000001D0896803E0002070475D
:105790000968401C0029FBD17047002200F034B991
:1057A00010B5016828208847040002D02821FAF7A4
:1057B000E9FC204610BD0022114600F001B80000AF
:1057C0002DE9F04788B00D46044692461C216846F4
:1057D000FAF7D8FC31480026002C066046605AD003
:1057E00020460094FAF7F7FC401CDFF8B090CDE9B2
:1057F0000106D9E90212D9F810000491CDE905207B
:10580000B04609F10800FFF7CBFF07002BD0009846
:105810006E4608B1029808B100260BE001980428F2
:1058200008D903221EA10098FAF707FD10B90298C3
:10583000C01C02903046FFF7E3FE0146384600F0F8
:10584000CFFB68B1BAF1000F14D06846FFF7D8FE5D
:10585000DDE90101814203D202990098405C48B120
:105860003846FFF769FFDDE90121404691420AD23F
:1058700008460BE01DB1029900980844286038469C
:1058800008B0BDE8F087111E00D0481E0DB12118E8
:105890002960C9E900400020F2E70000C0020020B2
:1058A000EFBBBF00014A002100F018BCC802002075
:1058B00070B50E4605000DD0FAF78DFC401C31681E
:1058C00004468847060005D022462946FAF741FCDF
:1058D000304670BD002070BD0FB4084810B503AA53
:1058E0000299FFF773F90446430082B20349044862
:1058F000FEF792F9204610BC5DF814FBEC02002084
:10590000300B00202DE9F04104001CD02268D2B1F8
:10591000636813B1A068984215D24FF00046B142B7
:1059200011D2A568491C6818834202D35019BDE8FA
:10593000F081216939B9B0F1804F06D3B04202D26B
:105940006FF0004702E00020F1E74700236A0026DD
:105950002BB1394610469847050012D00CE0A169DA
:105960003846884705000CD0A2682168521CFAF717
:10597000F0FBE16920688847C4E90057A068284423
:10598000D5E7E1692068884766602660DBE70000AC
:1059900013B50223012269460248FEF73DF900983B
:1059A0001CBD0000700B00202DE9F04100250F23E5
:1059B000082212491248FEF72FF93220FCF732FB79
:1059C0000E4F104CBF1E00263E8094F83400012874
:1059D00010D10521601C00F067FEE188884203D1E8
:1059E000A088012540BA388084F834603221601CD8
:1059F000FAF7C8FB2846BDE8F081000072020020DB
:105A0000F00A0020000000202DE9F0418846A8B3EC
:105A1000B8F1000F33D084680AB90AE024686CB387
:105A2000216A59B34046FAF7DDFB0028F6D120E0A1
:105A300024681CB3266A5FEA0805F9D0002EF7D067
:105A4000B54218D002E098B16D1C761C2878FAF7A0
:105A50007AFB07463078FAF776FB87422878F2D04F
:105A6000FAF771FB05463078FAF76DFB8542DFD116
:105A700024B1206A10B12046BDE8F081FFE7002084
:105A8000FAE700002DE9F0410B3020F00706104D39
:105A900019E02068B04215D3B0420AD9871B201DF7
:105AA000D4F80480FAF755FBA019C0E90078286003
:105AB00004E060682860201DFAF74BFB201D26607B
:105AC000BDE8F081251D2C68002CE2D10020F7E70D
:105AD000E4020020FCF7E0FCFEF76EFBFEF72AF97B
